:020000040800F2
:10000000000B002079020008172E00084128000884
:10001000152E00086F040008A53800080000000035
:100020000000000000000000000000001B2E00087F
:100030007104000800000000192E00081D2E0008A1
:10004000930200089302000893020008930200083C
:10005000930200089302000893020008930200082C
:10006000930200089302000893020008930200081C
:10007000930200089302000893020008930200080C
:100080009302000800000000930200089302000899
:1000900093020008930200089302000893020008EC
:1000A00093020008930200089302000893020008DC
:1000B00093020008930200089302000893020008CC
:1000C00093020008930200089302000893020008BC
:1000D00093020008930200089302000893020008AC
:1000E000930200089302000893020008930200089C
:1000F0009302000893020008930200080000000029
:1001000000000000930200080000000093020008B5
:100110009302000800000000930200089302000808
:10012000930200089302000893020008930200085B
:100130009302000800000000000000009302000885
:100140009302000893020008000000000000000075
:10015000000000000000000000000000000000009F
:1001600000000000000000000000000093020008F2
:1001700093020008000000000000000000000000E2
:1001800000000000930200080000000000000000D2
:10019000000000000000000000000000000000005F
:1001A0000000000000000000930200089302000815
:1001B0009302000893020008930200080000000068
:1001C0000000000093020008000000000000000092
:1001D000930200089302000800F002F800F03CF8D7
:1001E0000AA090E8000C82448344AAF10107DA4592
:1001F00001D100F031F8AFF2090EBAE80F0013F0A8
:10020000010F18BFFB1A43F00103184758370000CD
:1002100078370000103A24BF78C878C1FAD852075E
:1002200024BF30C830C144BF04680C607047000070
:100230000023002400250026103A28BF78C1FBD8EF
:10024000520728BF30C148BF0B6070471FB503F08D
:1002500063FB1FBD10B510BD00F0CFF81146FFF7CE
:10026000F5FF03F031FB00F0EDF803B4FFF7F2FF08
:1002700003BC00F0F5F80000094880470948004732
:10028000FEE7FEE7FEE7FEE7FEE7FEE7FEE7FEE746
:10029000FEE7FEE704480549054A064B70470000A3
:1002A000852E0008D901000800050020000B002061
:1002B000000700200007002053EA020C00F06980CC
:1002C0002DE9F04B4FF00006002B1FBFB3FA83F56A
:1002D00003FA05F424FA05F65E4012BF1643B2FA9B
:1002E00082F502FA05F4C5F120051EBF22FA05FCCD
:1002F00044EA0C04203556EA044C4FEA144418BF73
:10030000641C4FF000084FF00009904271EB030CA1
:1003100039D3002919BFB1FA81F701FA07F6B0FA0B
:1003200080F700FA07F6C7F120071EBF20FA07FC86
:1003300046EA0C062037B6FBF4FCA7EB0507103F96
:1003400007F01F0BCBF120060CFA0BFB2CFA06F67C
:1003500044BFB3460026202FA4BF5E464FF0000BDB
:100360005BEA060C08BF4FF0010B19EB0B09ABFB66
:10037000027C48EB0608C01B06FB02CC0BFB03CC3F
:1003800071EB0C01C1E70B46024641464846BDE809
:10039000F08B13B54FF000004FF00001AFF3008079
:1003A000BDE81C4070474FF0000200B5134694466C
:1003B0009646203922BFA0E80C50A0E80C50B1F1BD
:1003C0002001BFF4F7AF090728BFA0E80C5048BFD1
:1003D0000CC05DF804EB890028BF40F8042B08BF6F
:1003E000704748BF20F8022B11F0804F18BF00F86B
:1003F000012B7047704770477047754600F02CF826
:10040000AE4605006946534620F00700854618B001
:1004100020B5FFF73FFFBDE820404FF000064FF04A
:1004200000074FF000084FF0000B21F00701AC4629
:10043000ACE8C009ACE8C009ACE8C009ACE8C00948
:100440008D46704710B50446AFF300802046BDE8E6
:100450001040FFF70ABF000000487047A0040020CA
:1004600001491820ABBEFEE7260002007047FEE7F8
:10047000704772B6FEE700002DE9F047044690F899
:1004800058009CB00E464FF00009012815D00120FD
:1004900084F8580000251795189520684FF0A0485B
:1004A00040450ED1284F0097384602F0D8F98246D1
:1004B000206802F0D4F960B10EE002201CB0BDE863
:1004C000F087E06D40F02000E06584F8585001208E
:1004D000F4E7BAF1000F09D0E06D40F02000E065CC
:1004E0004FF0010984F858504846E7E7174832684A
:1004F00040F61F71002A826822F4604216D094F8F8
:10050000383042EA433273681A438260D8F80820D0
:10051000BB6802F0010203F001031A43E2D1B368A1
:1005200032681A4383688B431A430BE08260D8F821
:100530000820BB6802F0010203F001031A43D1D185
:1005400082688A438260CDE70001005000030050BA
:100550002DE9F84F00270446009790F85800DFF87F
:10056000E0930D46B846012811D0012684F8586062
:10057000206802F070F960B1E06D40F02000E065A5
:100580005FF0010784F858803846BDE8F88F0220F4
:10059000FBE7D5E900210C23206803EA91131844F6
:1005A000036B01F01F014FF01F0C0CFA01FCC2F3AA
:1005B000846223EA0C038A4013430363206802F039
:1005C0004AF98246206802F042F95AEA00003CD11A
:1005D000AA6829682068B2F1004F37D002F043F9C9
:1005E0002068416921F00041416120686969C26861
:1005F000C2F3C102520091402A69042A31D000EBB3
:1006000082002B68026EDFF83CC303F0F84302EA75
:100610000C020B431A4342F00041016620682A692C
:10062000A96900EB8200026E22F080720A43026622
:10063000297F22682869012910D0002102EB80005F
:10064000026E22F000720A4302667DE0002202F090
:100650000AF92068416941F00041C5E74FF0007197
:10066000ECE7002102F0EDF8400320684FF00001B4
:1006700072D002F0E6F890FAA0F0B0FA80F12868A3
:1006800042036ED090FAA0F0B0FA80F0814204D11B
:1006900000221146206802F0F5F80121206802F0DE
:1006A000D0F8400320684FF001015DD002F0C9F896
:1006B00090FAA0F0B0FA80F12868420359D090FA7D
:1006C000A0F0B0FA80F0814204D10022012120681C
:1006D00002F0D8F80221206802F0B3F84003206845
:1006E0004FF0020148D002F0ACF890FAA0F0B0FA56
:1006F00080F12868420344D090FAA0F0B0FA80F06C
:10070000814204D100220221206802F0BBF80321BB
:10071000206802F096F8400320684FF0030133D0C0
:1007200002F08FF890FAA0F0B0FA80F12868420346
:100730002FD090FAA0F0B0FA80F0814204D10022CC
:100740000321206802F09EF82068816811F0010FF3
:1007500022D0ACE000E004E002F073F8C0F3846162
:100760008DE7C0F3846091E702F06BF8C0F3846119
:10077000A2E7C0F38460A6E702F063F8C0F38461E7
:10078000B7E7C0F38460BBE702F05BF8C0F38461B5
:10079000CCE7C0F38460D0E72A7B296850F8B03FEB
:1007A000C1F3120C23EA0C0302F0180C664A22FA79
:1007B0000CF20A4013430360E968494577D1286881
:1007C00041031CD090FAA0F1B1FA81F1491C01F06B
:1007D0001F0109294FEA403132D8002912D000BF49
:1007E00090FAA0F1B1FA81F101F1010101F01F01CC
:1007F00006FA01F609D100BFC0F3846109E0C0F335
:100800008461E3E7C0F38461EEE790FAA0F1B1FA06
:1008100081F101F1010101F01F0146EA816102D17C
:10082000C0F3846003E090FAA0F0B0FA80F000F129
:10083000010000F01F0000EB400041EA005132E0EF
:1008400000290ED090FAA0F1B1FA81F101F1010175
:1008500001F01F0106FA01F606D100BFC0F3846162
:1008600006E0C0F38461F1E790FAA0F1B1FA81F1FA
:1008700001F1010101F01F0146EA816102D1C0F3DB
:10088000846003E090FAA0F0B0FA80F000F101007B
:1008900000F01F002D4A00EB400002EB005041EA3F
:1008A000000141F00071AA68206801F0DCFF2848CF
:1008B0002A6802423FF466AE26488168264B01F062
:1008C000E0719A4202D0254B9A421CD10B021AD4F5
:1008D0002268B2F1A04F7FF455AE826841F4000166
:1008E00022F0E0720A4382601D481E490068B0FB96
:1008F000F1F0401C00EB4000800000E0401E009042
:100900000028FBD13EE6184D184BAA4207D1CD0175
:1009100005D422689A42F5D041F0807109E0144D67
:10092000AA42EFD14A02EDD422689A42EAD041F4B9
:100930008001826822F0E0720A43826022E60000B1
:1009400000007F4000F0FF03FFFF0700000020FED3
:100950000000088000030050000021C31000C09078
:1009600010000020400D0300000052C7000100509D
:10097000000084CBF8B54FF0000504002E4600952A
:1009800002D0E06D10B107E00120F8BD204600F074
:10099000EBF8266684F8586020688168C1F34071DE
:1009A00019B18168684A1140816020688168C1F38B
:1009B000007189B98168654A114041F080518160B8
:1009C000634864490068B0FBF1F04000801C00E01F
:1009D000401E00900028FBD120688168C1F300719F
:1009E00041B9E16D41F01001E165216E41F0010175
:1009F0002166012501F02FFFE16DC90600D430B159
:100A0000E06D40F01000E06501252846F8BDE06D7E
:100A100020F4807040F00200E0652068806810F0EB
:100A2000010F11D14FF0A04080684B4900F0010048
:100A3000896801F00101084306D14848616882686D
:100A400022F47C120A438260E168E06B627F084313
:100A5000A16841EA4231084394F8241040EA014079
:100A6000012904D1218D3E4A02EB41410843E16A4C
:100A700029B101F47871226B014342EA0100226836
:100A8000D168384B19400143D16020680169626B1D
:100A900021F0406111430161206801F0D8FE70BB74
:100AA000207F94F83810800340EA41022168C8682A
:100AB00044F2020398431043C8602069002820686C
:100AC00001690AD041F480310161206850F8C01FEB
:100AD00022696FF30D01114307E021F480310161B8
:100AE000206850F8C01F6FF30D01016094F84000BA
:100AF00001280CD02068016921F0010101616069C1
:100B000001282068016B21F00F0111D013E0D4E916
:100B100011010843D4E913121143084321680A69FB
:100B200040F2FC739A43104340F001000861E6E78D
:100B3000226A521E11430163E06D20F0020040F072
:100B40000100E06561E70000C0FFFF5FC0FFFF7FBD
:100B500010000020400D0300000100500003005071
:100B60000000FEFF0740F0FF2DE9F04397B0044678
:100B7000142111A8FFF717FC44216846FFF713FC66
:100B80004FF40041206800258A03344F0126344C7D
:100B90004FF003084FF09049B0F1A04F10D0314B07
:100BA000984258D10F926846009100F0D3FB08B1EB
:100BB000FFF75FFC3868401C3860012834D03BE008
:100BC0000F926846009100F0C5FB08B1FFF751FC99
:100BD0003868401C3860012807D1E06C40F40050B0
:100BE000E064E06C00F400501690E06C40F001000E
:100BF000E064E06C00F001001690E06C40F0020050
:100C0000E064E06C119600F00200CDE912851690C8
:100C1000444611A9484600F07BF911A941F60100AC
:100C200081E83100104814E0E06C40F40050E064CA
:100C3000E06C00F400501690E06C40F00100E064BD
:100C4000E06C119600F00100CDE91285169011A913
:100C5000484600F05DF917B0BDE8F08300000020C1
:100C600000100240000100500004004870B5044626
:100C700000F080FA0546601C02D004484068044435
:100C800000F078FA401BA042FAD370BD04000020A7
:100C90002DE9F041040006D0DFF8E88194F85C000B
:100CA000002518B107E00120BDE8F08184F85D500F
:100CB000204600F0EFF82068816921F01001816181
:100CC00000F058FA0646032705E000BF00F052FA8C
:100CD000801B0A2811D8206880690007F6D4206894
:100CE000816941F00101816100F044FA06460BE0A0
:100CF00000F040FA801B0A2806D9206E40F001005F
:100D0000206684F85C70CEE720688069C007EFD069
:100D10002068816941F0020181612168414502D169
:100D2000594960680860207C01282068816937D0B3
:100D300041F040018161607C01282068816932D0E6
:100D400021F480418161A07C0128206881692DD037
:100D500041F48051816120688169A26821F4407169
:100D6000114381612068816921F0A40181612068BB
:100D7000016921F010010161E068012819D010B368
:100D800002281BD02068816941F0800181612068C0
:100D9000016941F010010161E06803280ED012E002
:100DA00021F04001C6E741F48041CBE721F48051B6
:100DB000D0E72068816941F0040103E0206881697F
:100DC00041F020018161207EE26940066FF0FF0161
:100DD00001EB0222A0F100701043226AA38A521E86
:100DE00010430A0202EB034318432368D861A0684A
:100DF000B0F5407F10D1D4E90A0301EB0321401E76
:100E00000843216B131303EB01110843A18C02EB80
:100E1000014108432168C860206850F8C01FE26B98
:100E20001143016019482064216851F8802FA38E76
:100E300022F4F81242EA03420A60144970316164F4
:100E4000216851F8802F94F8383022F0706242EA1D
:100E500003620A600D49B031A1640D49E1640C4997
:100E6000D83121650A49F031616500F5547120C01F
:100E70008842FCD3A5652566012084F85C0000202B
:100E800012E70000006400400065004000A400403C
:100E900088A5004010B598B00446142111A8FFF7AA
:100EA00082FA44216846FFF77EFA17492068884293
:100EB00028D18014009040030C90684600F04AFA54
:100EC00008B1FFF7D6FA1148816D41F000718165D4
:100ED000816D01F000711691C16C41F00101C16496
:100EE000C06C11A900F0010016904FF4C050119091
:100EF0000220129000201390149009201590C00633
:100F000000F006F818B010BD006400400010024068
:100F10002DE9F04FDFF82092002301260324A9F1E8
:100F2000040B85B00F2709F1040AABF1040EFAE0B7
:100F300006FA03F52A407CD091F804C00CF0030CAB
:100F4000BCF1010F02D0BCF1020F26D1D0F808C0CD
:100F5000CDF800C04FEA430C04FA0CF8CDF810C0ED
:100F6000DDF800C02CEA080CCDF800C0D1F80C80E8
:100F7000DDF810C008FA0CF8DDF800C048EA0C08EB
:100F8000C0F80880D0F804C02CEA050C0D79C5F330
:100F900000159D4045EA0C0545600D79ED43AD0710
:100FA0000ED0C5684FEA430804FA08FC25EA0C0590
:100FB000D1F808C00CFA08FC4CEA050CC0F80CC0CB
:100FC0000D7905F00305022D16D1DD0800EB850C27
:100FD000CDF808C0DCF820805D074FEAD56C07FA31
:100FE0000CF528EA05080D6905FA0CF5DDF808C0CE
:100FF00045EA0805CCF8205005684FEA430CCDF8C7
:1010000008C004FA0CFC25EA0C0591F804C00CF0A9
:101010000308DDF808C008FA0CF848EA0508C0F82B
:1010200000804D6815F4403F7CD0444DD5F860C039
:1010300000E077E04CF0010CC5F860C02D6E23F0A5
:10104000030C05F0010500953D4D65440295AD6822
:101050004FEA837C4FEA1C7807FA08FC25EA0C0566
:10106000B0F1904F06D0DFF8DCC0604505D14FF0FD
:10107000010C20E04FF0000C1DE0DFF8CCC0604513
:1010800002D14FF0020C16E0DFF8C0C0604502D17B
:101090004FF0030C0FE0DFF8B8C0604502D14FF00D
:1010A000040C08E0DFF8ACC0604502D14FF0050C3D
:1010B00001E04FF0060C0CFA08FC4CEA050C029D0E
:1010C000C5F808C0D9F80050CC46D1F80480954343
:1010D0005FEAC82800D51543CCF80050DAF8005074
:1010E000D446D1F8048095435FEA882800D515439B
:1010F000CCF80050DBF80050DC46D1F80480954372
:101100005FEA883800D51543CCF80050DEF800506F
:10111000F446D1F8048095435FEAC83800D51543FA
:10112000CCF800505B1C0A6832FA03F57FF400AF7C
:1011300005B0BDE8F08F0000080401400010024037
:10114000000001400004004800080048000C00486E
:101150000010004800140048426921EA02030A40D6
:1011600043EA0241816170470AB18161704781623F
:1011700070470000014880687047000004000020AC
:101180000248816842681144816070470400002071
:1011900010B50024032000F065F80F2000F008F8D7
:1011A00008B1012401E000F025F8204610BD000040
:1011B00070B50E4E05460024706898B14FF47A71F0
:1011C000B1FBF0F00A490968B1FBF0F000F03CFE19
:1011D00040B9102D06D200222946501E00F022F8F8
:1011E000356000E00124204670BD000004000020AE
:1011F000100000200A4882B0016E41F00101016632
:10120000016E01F001010091816D41F08051816515
:10121000806D00F08050009002B000F093B80000A4
:1012200000100240F0B40E4B1B680C46C3F30223BF
:10123000C3F10705042D00D90425191D072901D282
:10124000002300E0DB1E012606FA05F1491E2140BD
:1012500099409E40761E16403143F0BC02F023BBFD
:101260000CED00E0064900F0070208684FF6FF03A6
:10127000184040EA0220034A10430860704700000B
:101280000CED00E00000FA052B492C4B0A683221D6
:101290004A432B4940B1B0F5007F086829D020F4BB
:1012A000C06040F480602CE00868C0F34120022850
:1012B00004D051F8800F20F4807022E0D1F8800033
:1012C00020F48070C1F88000086820F4C06040F409
:1012D00000700860B2FBF3F0401C00E0401E4A6959
:1012E000520501D50028F9D1486940050AD50320E7
:1012F0007047C0F34120022806D051F8800F40F417
:101300008070086000207047D1F8800040F4807041
:10131000C1F88000086820F4C06040F400700860E4
:10132000B2FBF3F0401C00E0401E4A695205DBD5D9
:101330000028F9D1D8E700001000002040420F003B
:10134000007000400248816841F48041816070472C
:10135000007000402DE9F8430446006800269D4DCA
:1013600000035ED5A86D0027C00008D4A86D40F02A
:101370008050A865A86D012700F080500090DFF82C
:101380005892D9F8001041F48071C9F80010FFF7A5
:10139000F1FE804606E000BFFFF7ECFEA0EB080080
:1013A00002282BD8D9F80000C005F5D5D5F8900053
:1013B00010F4407014D0216C814211D0D5F8900007
:1013C000D5F8901020F4407041F48031C5F89010A9
:1013D000D5F8901021F48031C5F89010C5F8900030
:1013E000C00711D0FFF7C6FE804641F2883907E0FA
:1013F000FFF7C0FEA0EB0801494501D903260BE029
:10140000D5F890008007F3D5D5F89000216C20F432
:1014100040700843C5F890001FB1A86D20F08050BF
:10142000A8652078C00707D0D5F88800616820F04B
:1014300003000843C5F888002078800707D5D5F851
:101440008800A16820F00C000843C5F888002078C7
:10145000400707D5D5F88800E16820F03000084340
:10146000C5F888002078000707D5D5F888002169DD
:1014700020F0C0000843C5F888002078800607D512
:10148000D5F88800616920F440600843C5F88800F9
:101490002078400607D5D5F88800A16920F440508F
:1014A0000843C5F888002078000607D5D5F88800DD
:1014B000E16920F440400843C5F888002088C00551
:1014C00007D5D5F88800216A20F440300843C5F8D4
:1014D00088002088800507D5D5F88800616A20F447
:1014E00040200843C5F88800208840050FD5D5F86E
:1014F0008800A16A20F440100843C5F88800A06A5B
:10150000B0F5801F03D1E86840F48010E8602088BF
:1015100000050FD5D5F88800E16A20F440000843A3
:10152000C5F88800E06AB0F5800F03D1E86840F4A0
:101530008010E8602088C0040FD5D5F88800216BA2
:1015400020F040700843C5F88800206BB0F1807F20
:1015500003D1E86840F48010E86020884FF0006113
:1015600080040ED5D5F88800626B20F040601043EF
:10157000C5F88800606B884203D1E86840F48010A9
:10158000E860208840040ED5D5F88800A26B20F0D2
:1015900040601043C5F88800A06B884203D1E8681A
:1015A00040F48010E860208800040FD5D5F888004A
:1015B000E16B20F040500843C5F88800E06BB0F1C3
:1015C000805F03D1E86840F48030E8603046BDE8D1
:1015D000F883000000100240007000402DE9F04741
:1015E0000E4605004FF0000725D0DFF8AC81D8F893
:1015F000000000F00F00B0420CD2D8F8001021F02B
:101600000F013143C8F80010D8F8000000F00F00B7
:10161000B04210D12968614CC80741F2883A5AD0CB
:101620006868DFF87C91032808D0022820682DD054
:10163000400500282CDB0120BDE8F08720688001F0
:10164000F9D5E06800F00302E068C0F30310401C25
:10165000032A19D0534A00BFB2FBF0F0E268C2F38C
:1016600006225043E268C2F34162521C5200B0FBB2
:10167000F2F0484517D9A06810F0F00F0CD0880799
:1016800011D5A86840B10EE0474AE5E78003D0E7EE
:1016900000F0B6F8484506D9A06820F0F00040F008
:1016A0008000A0608027A068696820F003000843DC
:1016B000A060FFF75FFD814606E000BFFFF75AFD1F
:1016C000A0EB090151453AD8A068696800F00C0008
:1016D000B0EB810FF2D12868810714D5400703D5FC
:1016E000A06840F4E060A0602878000705D5A068F5
:1016F00020F4605040F4E060A060A068A96820F089
:10170000F000084304E0802F03D1A06820F0F0002F
:10171000A060D8F80010404601F00F01B14216D980
:10172000016821F00F0131430160FFF723FD0746F7
:1017300007E000BFFFF71EFDC11B514501D9032083
:101740007AE7D8F8000000F00F00B042F2D1287814
:10175000400705D5A068E96820F4E0600843A06070
:101760002878000706D5A068296920F4605040EA6F
:10177000C100A06000F044F8A1680C4AC1F3031155
:10178000515C01F01F01C840094908600948006820
:10179000BDE8F047FFF70CBD0020024000100240FA
:1017A00000B4C4040024F40000127A004A3900088E
:1017B00010000020040000200548064900688968E0
:1017C000054AC1F30221515C01F01F01C840704776
:1017D00010000020001002405A3900080548064950
:1017E00000688968054AC1F3C221515C01F01F01FC
:1017F000C840704710000020001002405A3900080D
:10180000184910B58868C0F381021748012A0BD027
:101810008A684310C2F38102022A06D08A68C2F3A2
:101820008102032A03D0002010BD184610BDCA68EB
:1018300002F00304CA68C2F30312521C032C02D044
:10184000B0FBF2F001E0B3FBF2F0CA68C968C2F382
:1018500006225043C1F34161491C4900B0FBF1F03D
:1018600010BD0000001002400024F4002DE9F843F0
:1018700004007AD02078F84DC00747D0A868E968FE
:1018800000F00C0001F003010C2802D0082817D04A
:1018900001E0032914D06068B0F5803F17D0B0F59F
:1018A000A02F286817D020F480302860286820F402
:1018B000802028606068E0B1FFF75CFC064614E019
:1018C0002868800322D560680028D2D01EE02868EE
:1018D00040F48030EDE740F480202860F7E700BF57
:1018E000FFF748FC801B642870D828688003F7D570
:1018F0000CE0FFF73FFC064605E000BFFFF73AFCAF
:10190000801B6428F0D828688003F7D420788007EB
:101910004CD5A868E96800F00C0001F003010C2820
:1019200002D004280DD001E002290AD0E068002886
:1019300028682BD040F480702860FFF71BFC064617
:1019400019E02868400502D5E068002891D0686851
:10195000217C20F0FE4040EA01606860BF480068DA
:10196000FFF726FC002800D120E072E1FFF702FC1F
:10197000801B0228B8D828684005F7D56868217C04
:1019800020F0FE4040EA016068600FE020F48070C3
:101990002860FFF7EFFB064605E000BFFFF7EAFB14
:1019A000801B0228A0D828684005F7D420780007BB
:1019B00029D560690028D5F8940013D040F00100C3
:1019C000C5F89400FFF7D6FB064606E090E000BF9E
:1019D000FFF7D0FB801B022886D8D5F8940080073B
:1019E000F6D510E020F00100C5F89400FFF7C2FB27
:1019F000064604E0FFF7BEFB801B022878D8D5F826
:101A000094008007F6D42078400761D5A86D0026A1
:101A1000C00008D4A86D40F08050A865A86D0126CC
:101A200000F0805000908E480168C90511D401680B
:101A3000804641F480710160FFF79CFB074604E09B
:101A4000FFF798FBC01B022852D8D8F80000C00549
:101A5000F6D5A068012815D00528D5F8900016D035
:101A600020F00100C5F89000D5F8900020F00400A7
:101A7000C5F89000A06841F28838B8B1FFF77AFB4A
:101A800007460EE0D5F8900040F00100F0E740F086
:101A90000400C5F89000F5E7FFF76CFBC11B41455A
:101AA00026D8D5F890008007F6D50CE0FFF762FB4A
:101AB000074604E0FFF75EFBC11B414518D8D5F887
:101AC00090008007F6D41EB1A86D20F08050A86564
:101AD0002078800629D5A0690028D5F8980013D071
:101AE00040F00100C5F89800FFF744FB064606E009
:101AF00075E000BFFFF73EFB801B02286FD8D5F8CA
:101B000098008007F6D510E020F00100C5F8980095
:101B1000FFF730FB064604E0FFF72CFB801B022892
:101B20005DD8D5F898008007F6D4E069F0B3A968CD
:101B3000C1F3810103295DD00228286820F080705C
:101B4000286003D0FFF716FB04464BE0FFF712FBBB
:101B5000064604E0FFF70EFB801B02283FD82868EA
:101B60008001F7D4F4E908016FF00F0202EB0111D4
:101B70000843218A5204490802EB4151A26841EA14
:101B800002210843217D4FF07E42490802EB41616A
:101B90000843217B40EAC160E968324A11400843AA
:101BA000E860286840F08070286000E05EE0E86847
:101BB00040F08070E860FFF7DDFA044605E000BF02
:101BC000FFF7D8FA001B022809D828688001F7D54A
:101BD0004CE000BFFFF7CEFA001B022802D9032019
:101BE000BDE8F88328688001F4D4E8681E490840FD
:101BF000E8603BE00128F3D0E868226A00F00301C6
:101C0000914226D1616A00F0F00209011039914237
:101C10001FD1A26A00F4FE41B1EB022F19D194F852
:101C20002C2000F07841B1EBC26F12D1218E00F46C
:101C3000C00249084905A1F50011914209D194F863
:101C4000341000F0C06049084906A1F100718142DA
:101C50000CD00120C4E70000001002400400002066
:101C6000007000400C809F01FCFFEEFE0020B7E7F3
:101C70002DE9F0411D4616460F46040003D0D4F866
:101C8000880018B108E00120BDE8F081002084F848
:101C90008400204600F032FD2420C4F8880020682B
:101CA000016821F001010160A06A10B1204601F035
:101CB00091FB204601F072FC0128E5D02068816884
:101CC00041F4804181602068816821F400413943FA
:101CD0008160700540EA054120680268064B1A40A1
:101CE0000A4302602068016841F00101016020465A
:101CF000BDE8F04101F0D2BBFFFF00FC70B504006D
:101D000009D0606A002540B125616561A56294F83B
:101D10005D0040B10CE0012070BD6068B0F5827FCD
:101D2000F4D0E561F2E784F85C50204600F05CF8FE
:101D3000022084F85D002068016821F04001016004
:101D4000E1684FF4E062914201D9002001E04FF4D4
:101D50008050B1F5706F02D0914200D0A562A18889
:101D6000228901F4827102F404421143227C02F0C0
:101D700002021143227D02F001021143228B02F480
:101D800000721143227F02F03802114394F82020A0
:101D900002F080021143228D02F4005211432268A6
:101DA0001160A169042202EA114194F8242000F490
:101DB000805002F01002114394F8342002F008021F
:101DC0001143A28902F4706211430143206841600B
:101DD0002068C16921F40061C1612566012084F891
:101DE0005D00002070BD000010B586B004461421CF
:101DF0006846FEF7D8FA1249206888421ED1114879
:101E0000016E41F480510166016E01F4805105912B
:101E1000C16C41F00101C164C06C694600F0010071
:101E20000590E02000900220019000200290039095
:101E3000052004904FF09040FFF76AF806B010BDFF
:101E4000003001400010024010B5401EB0F1807F0C
:101E500001D3012010BD4FF0E02460610F21601715
:101E600001F021FD0020A06107202061002010BDAD
:101E700030B590F83C20012A42D0012280F83C2065
:101E8000CA688B6822F440721A434B6822F480625D
:101E90001A430B6822F400621A430B6922F4805241
:101EA0001A434B6922F400521A430B6B22F480420E
:101EB0001A430B8B22F4702242EA0342CB6922F0D0
:101EC00080521A430F4D03680024AB4202D00E4DDE
:101ED000AB4210D10D8D22F4700242EA05520D6A18
:101EE00022F080722A434D6A22F000722A43C96AA6
:101EF00022F000520A435A6480F83C40002030BD72
:101F0000022030BD002C014000340140F0B590F8B3
:101F10003C20012A3AD0012580F83C50022280F86A
:101F20003D2003685A689C68194E1A4FB34201D08D
:101F3000BB4204D122F4700C4A6842EA0C02DFF87A
:101F400058C002EA0C02D1F800C04CEA020CC3F8F7
:101F500004C00268B2420DD0B2F1804F0AD00F4BDC
:101F60009A4207D00E4B9A4204D0BA4202D00D4B8F
:101F70009A4204D1896824F080031943916080F863
:101F80003D50002180F83C100846F0BD0220F0BD15
:101F9000002C0140003401408FFFFFFD0004004091
:101FA000000800400040014010B5040003D094F840
:101FB0003D0010B107E0012010BD002084F83C0076
:101FC000204600F023F8022084F83D00211D2068FF
:101FD00000F060FF012084F8480084F83E0084F897
:101FE0003F0084F8400084F8410084F8420084F8FF
:101FF000430084F8440084F8450084F8460084F8DF
:10200000470084F83D00002010BD000010B586B0E8
:10201000044614216846FEF7C6F921681C48B1F150
:10202000804F0CD01B4A914211D1816D41F00201C9
:102030008165806D00F00200059006B010BD816DD5
:1020400041F001018165806D00F00100F4E7124A62
:102050009142F2D1016E41F480210166016E01F4DA
:1020600080210591C16C41F00201C164C06C6946D8
:1020700000F0020005902020009002200190002036
:10208000029003900A2004900448FEF741FFD4E731
:1020900000100240000400400048014000040048D5
:1020A00070B5044690F83C000025012814D00126A4
:1020B00084F83C60022084F83D0022689068364B2A
:1020C000184020F47F409060086870282ED010DC03
:1020D00010F00F0F03D021E04FF0020070BD4FEA67
:1020E0002012072A1AD2DFE802F0525252524A381E
:1020F00040002A4BC21A984249D009DCB0F5805FF3
:102100000DD0B0F5005F1CD0B0F1101F06D13EE03D
:10211000102A3CD0202A3AD0502A38D0012584F801
:102120003D60002084F83C00284670BDCB68D1E9B2
:102130000121206800F00CFF2068816841F07701E0
:1021400009E0CB68D1E90121206800F001FF206897
:10215000816841F480418160E1E7CA68496820688C
:1021600001F0A0F85021206806E0CA68496820689C
:1021700001F0E0F86021206800F0F4FECFE7CA68C3
:102180004968206801F08EF840212068F4E7226851
:1021900001461046F0E7000088FFCEFF2000100047
:1021A0002DE9F041054690F83C0000260C46012838
:1021B00010D0012085F83C0072B1042A1CD0082AF6
:1021C0002CD00C2A50D00126002085F83C00304647
:1021D000BDE8F0810220FBE7D4E90012E36828683B
:1021E00001F072F82868816921F00C01816128688A
:1021F0008169A26811430FE0D4E90012E3682868FE
:1022000001F0AAF82868816921F440618161286899
:102210008169A26841EA02218161D5E72868D4E991
:10222000002C277B036A016A21F480710162C16975
:1022300023F4206321F0030141EA0C0121F0F00CAA
:1022400039074FF420674CEA116107EA02221A436A
:10225000C16102622868C16921F00C01C16128686E
:10226000C169A26811432BE02868D4E90021E7681E
:10227000036AD0F820C02CF4805CC0F820C0D0F8ED
:102280001CC023F420432CF4407C4CEA012121F4AF
:10229000704C4FF6FF7101EA07314FF4204741EAD5
:1022A0000C0107EA02321A43C16102622868C1695F
:1022B00021F44061C1612868C169A26841EA022134
:1022C000C16181E710B5040003D094F83D0010B15E
:1022D00007E0012010BD002084F83C00204600F0FB
:1022E00022F8022084F83D00211D206800F0D2FD74
:1022F000012084F8480084F83E0084F83F0084F808
:10230000400084F8410084F8420084F8430084F8D7
:10231000440084F8450084F8460084F8470084F8B7
:102320003D00002010BD70472DE9F04186B0044605
:1023300014216846FEF737F8304B226800253049F3
:10234000022430484FF090489A422DD1CA6C42F096
:102350000202CA64CA6C02F002020592CA6C42F020
:102360000102CA64C96C062601F0010105914FF40F
:10237000C0418DE83200CDE9035669460746FEF7B5
:10238000C7FDA0038DE831000420CDE90350694664
:102390003846FEF7BDFD4FF4E0608DE83100CDE931
:1023A00003566946404624E0B2F1804F11D0164BE7
:1023B0009A4220D1CA6C42F00202CA64C96C0094ED
:1023C000CDE9014501F00201CDE9044103956946DB
:1023D0000FE0C86C40F00100C864C86C694600F0AA
:1023E0000100059008208DE831000120CDE903505F
:1023F0004046FEF78DFD06B0BDE8F081002C01409F
:1024000000100240000400480004004070B504467B
:1024100090F83C0000260D4601280BD0012084F8DE
:102420003C000C2A4AD007DC82B1042A20D0082ABA
:1024300006D131E0022070BD102A53D0142A63D097
:102440000126002084F83C00304670BD206800F072
:1024500093FD2068816941F00801816120688169EC
:1024600021F004018161206881692A69114311E02A
:10247000206800F0CFFD2068816941F4006181612E
:102480002068816921F480618161206881692A69FD
:1024900041EA02218161D4E7206800F003FE206850
:1024A000C16941F00801C1612068C16921F00401DE
:1024B000C1612068C1692A69114311E0206800F0F8
:1024C00039FE2068C16941F40061C1612068C169B9
:1024D00021F48061C1612068C1692A6941EA022151
:1024E000C161AEE7206800F06DFE2068016D41F02B
:1024F000080101652068016D21F004010165206873
:10250000016D2A69114311E0206800F093FE2068F4
:10251000016D41F4006101652068016D21F4806165
:1025200001652068016D2A6941EA0221016588E799
:1025300010B5040003D094F83D0010B107E001206D
:1025400010BD002084F83C00204600F023F8022053
:1025500084F83D00211D206800F09CFC012084F8D7
:10256000480084F83E0084F83F0084F8400084F876
:10257000410084F8420084F8430084F8440084F861
:10258000450084F8460084F8470084F83D000020A8
:1025900010BD000008B500680649884208D1064809
:1025A000016E41F400610166006E00F4006000906D
:1025B00008BD0000002C01400010024090F884107B
:1025C000012918D0012180F884102421C0F8881036
:1025D00001680A680B6823F001030B6022F00051C8
:1025E00000224266036819602021C0F8881080F834
:1025F0008420104670470220704770B5044690F85A
:10260000840001281DD0012084F884002420C4F80F
:10261000880020680568026822F0010202602068D4
:10262000826822F060620A438260204600F0B0FEB9
:10263000206805602020C4F88800002084F8840009
:1026400070BD022070BD70B5044690F8840001286A
:102650001DD0012084F884002420C4F8880020685C
:102660000568026822F0010202602068826822F098
:1026700060420A438260204600F08AFE20680560BE
:102680002020C4F88800002084F8840070BD022057
:1026900070BD10B5040003D0D4F8880010B107E075
:1026A000012010BD002084F88400204600F026F8A8
:1026B0002420C4F888002068016821F0010101602D
:1026C000A06A10B1204600F085FE204600F066FFAB
:1026D0000128E6D02068416821F4904141602068DB
:1026E000816821F02A0181602068016841F00101C0
:1026F00001602046BDE8104000F0D0BE2DE9F04159
:1027000098B00446142111A8FDF74DFE44216846F7
:10271000FDF749FE44492068444C002502268842C2
:1027200037D10827684600970495FEF713FE08B1D5
:10273000FDF79FFEA06D40F40020A065A06D00F4A1
:1027400000201690E06C40F00100E064E06C00F0C6
:1027500001001690E06C40F00400E064E06CCDE90C
:10276000126500F0040016904FF40040CDE91457B4
:10277000119011A94FF09040FEF7CAFB4FF4406052
:1027800011900520CDE91450CDE9126511A9284812
:1027900020E028490727DFF8A08088421FD10120C8
:1027A000CDE900056846FEF7D5FD08B1FDF761FEED
:1027B000206E40F480402066206E00F48040169029
:1027C000E06C40F00200E064E06C00F00200169063
:1027D000C02020E0FEF79CFB18B0BDE8F08117494F
:1027E0008842F9D1684600960295FEF7B3FD08B11C
:1027F000FDF73FFEA06D40F40030A065A06D00F431
:1028000000301690E06C40F00200E064E06C00F0F4
:10281000020016901820CDE91265CDE914571190E9
:1028200011A94046D6E70000004C004000100240CD
:1028300000080048003801400004004800440040FF
:10284000FEE700EB8100006E00F0F8407047806802
:10285000C0F3C00070478068C0F380007047806894
:10286000C0F380007047042303EAD15310B5184425
:102870004369C1F3045107248C40A3438A401343A6
:10288000436110BD00EB8100016E21F00041114356
:102890000166704730B58BB000240894099420215C
:1028A00068460A94FDF77FFD1C484FF0A0410425BF
:1028B00001604FF44031C0E90114C4600461C0E913
:1028C0000545047744770121016280F82440C46201
:1028D000046380F83840C46380F84040FEF74AF84B
:1028E00008B1FDF7C6FD08A90C480894FDF7C4FD22
:1028F00008B1FDF7BEFD0A4800900620CDE90104AD
:102900007F200594CDE9030569460448FDF720FEC4
:10291000002801D0FDF7ADFD0BB030BD1400002044
:102920000040C03A114810B50F49016000214160D4
:102930008160C1600174417481741022426101227E
:102940008261C261026242628262C262C0E90C219B
:102950008163C163FEF79CF9002803D0BDE81040F5
:10296000FDF787BD10BD000000640040EC000020B2
:102970002DE9F04186B014216846FDF714FD284882
:10298000C16C41F00401C164C16C01F00401059106
:10299000C16C41F02001C164C16C01F020010591BE
:1029A000C16C41F00101C164C16C01F001010591EC
:1029B000C16C41F00201C164C06C1A4F00F002000A
:1029C00042F210040590002221463846FEF7CCFB67
:1029D000DFF8548040F20446002231464046FEF7BC
:1029E000C3FB0125CDE90045002402946946384621
:1029F0000394FEF78DFA1420CDE9000469464FF0E8
:102A000090400294FEF784FA0096CDE9015469469D
:102A100040460394FEF77CFA06B0BDE8F081000062
:102A2000001002400008004800040048124810B599
:102A3000104901604FF48271416000214FF44072EF
:102A4000C0E902124FF400720161C0E90512382298
:102A5000C0E9072107224162C0E90A120163082187
:102A60004163FFF74BF9002803D0BDE81040FDF7A4
:102A700000BD10BD00300140500100201FB50024F2
:102A8000154800940194029412490394C0E900147B
:102A90004FF6FF71C0E90241046144618461FFF7B0
:102AA00083FA08B1FDF7E5FC0B48FFF70BFC08B112
:102AB000FDF7DFFC0120CDE90040029400226946C9
:102AC00005480394FFF76CFB002801D0FDF7D1FC0B
:102AD0001FBD0000004801409802002010B598B0CA
:102AE0000024149415941C210DA81694FDF75BFC8A
:102AF00034216846FDF757FC2B482A49C0E90014E9
:102B00004FF6FF71C0E90241046144618461FFF73F
:102B10000FFD08B1FDF7ADFC1494159414A92248DB
:102B20001694FFF7F3F908B1FDF7A3FC6020CDE997
:102B30000D040F9410941194129400220DA91A48B8
:102B40001394FFF763FC08B1FDF793FC04220DA971
:102B50001548FFF75BFC08B1FDF78BFC08220DA9B7
:102B60001148FFF753FC08B1FDF783FC00944FF4C4
:102B70000050CDE9044003940003CDE908400194DE
:102B80000294069407940A940B94694606480C94A0
:102B9000FFF76EF908B1FDF76CFC0348FFF7C4FBC3
:102BA00018B010BD002C0140B401002010B58EB04B
:102BB00000240794089409940A940B940C941C2103
:102BC00068460D94FDF7EFFB1C484FF08041C0E9CB
:102BD0000014611EC0E9024104618461FFF7E4F959
:102BE00008B1FDF746FC4FF48050079007A9134841
:102BF000FFF756FA08B1FDF73CFC1048FFF798FCC8
:102C000008B1FDF736FC0B940BA90C480D94FFF7A7
:102C10007DF908B1FDF72DFC6020CDE90004029498
:102C20000C22694605480494FFF7F0FB08B1FDF754
:102C300020FC0248FFF778FB0EB010BD0002002018
:102C400010B58EB000240794089409940A940B944C
:102C50000C941C2168460D94FDF7A5FB1D481C49EA
:102C6000C0E900144FF6FF71C0E9024104618461BC
:102C7000FFF79AF908B1FDF7FCFB4FF4805007907D
:102C800007A91448FFF70CFA08B1FDF7F2FB114849
:102C9000FFF74EFC08B1FDF7ECFB0B940BA90D48B8
:102CA0000D94FFF733F908B1FDF7E3FB6020CDE9A0
:102CB000000402940C22694606480494FFF7A6FB20
:102CC00008B1FDF7D6FB0348FFF72EFB0EB010BD91
:102CD000000400404C020020194810B5174901605B
:102CE0004FF4E1314160002181600C22C160C0E9F4
:102CF00004128161C161016241620B460A46816230
:102D0000FEF7B6FF08B1FDF7B4FB00210C48FFF752
:102D10009AFC08B1FDF7ADFB00210948FFF76DFCF7
:102D200008B1FDF7A6FB0648FFF748FC002803D0D2
:102D3000BDE81040FDF79DBB10BD0000004C0040F9
:102D4000E4020020184810B5164901604FF4E13143
:102D50004160002181600C22C160C0E904128161E0
:102D6000C161016241628162FFF793FC08B1FDF726
:102D700080FB00210C48FFF766FC08B1FDF779FBEA
:102D800000210948FFF739FC08B1FDF772FB06483E
:102D9000FFF714FC002803D0BDE81040FDF769BB25
:102DA00010BD00000038014078030020184810B51D
:102DB000164901604FF4E1314160002181600C222D
:102DC000C160C0E904128161C16101624162816236
:102DD000FFF75FFC08B1FDF74CFB00210C48FFF743
:102DE00032FC08B1FDF745FB00210948FFF705FC5F
:102DF00008B1FDF73EFB0648FFF7E0FB002803D0D3
:102E0000BDE81040FDF735BB10BD00000044004098
:102E10000C040020FEE7FEE770477047FEF7B0B9EC
:102E200010B594B038216846FDF7BDFA14210EA8FC
:102E3000FDF7B9FA0020FEF727FA01200090000400
:102E4000019002200324CDE907045521CDE90901B1
:102E50000B900C900D906846FEF708FD08B172B615
:102E6000FEE70F20CDE90E04002010901190129083
:102E700004210EA8FEF7B2FB002801D072B6FEE7CF
:102E800014B010BD0248016841F470010160704740
:102E900088ED00E02DE9F0430268264B264D274ED1
:102EA000274C4FF08049984207D0484505D0A842AA
:102EB00003D0B04201D0A04203D122F070074A688B
:102EC0003A43204FDFF880C0DFF8808098420DD071
:102ED00048450BD0A84209D0B04207D0A04205D047
:102EE000B84203D0604501D0404503D122F440757B
:102EF000CA682A434D6922F080022A4302608A6828
:102F0000C2620A688262984207D0A04205D0B842E5
:102F100003D0604501D0404501D109690163012119
:102F200041610169C90703D0016921F00101016113
:102F3000BDE8F083002C0140000400400008004080
:102F4000003401400040014000440140004801407D
:102F500010B5846842EA032224F47F440A432243E2
:102F6000826010BD8268034B1A400A4342F0070199
:102F7000816070478FFFCFFF2DE9F043056A026A39
:102F800022F001020262436882691C4C25F00205AE
:102F900022400C6822F0030214438A68194E2A4327
:102FA000174D194FDFF864C0DFF86490A84207D0CE
:102FB000B04205D0B84203D0604501D0484506D1A3
:102FC00022F00808CA6842EA080222F00402A84275
:102FD00007D0B04205D0B84203D0604501D0484583
:102FE00005D14D6923F440731D438B692B43436026
:102FF0008461496841630262BDE8F0838FFFFEFF90
:10300000002C0140003401400040014000440140D8
:1030100000480140F0B5056A026A22F0100202621F
:1030200042688369194C1B4E23400C6823F440739B
:1030300043EA042425F020038D6843EA0513144D68
:10304000A84201D0B04206D1CF6823F0800343EA02
:10305000071323F04003A8420AD0B04208D00E4D17
:10306000A84205D00D4DA84202D00D4DA84207D16F
:103070004D6922F4406242EA85028D6942EA850286
:1030800042608461496881630362F0BDFF8FFFFE87
:10309000002C014000340140004001400044014048
:1030A00000480140F0B5056A026A22F480720262AB
:1030B0004368C269194C1B4E22400C6822F003027F
:1030C000144325F400728D6842EA0522144DA8428B
:1030D00001D0B04206D1CF6822F4006242EA072252
:1030E00022F48062A8420AD0B04208D00E4DA84215
:1030F00005D00E4DA84202D00D4DA84207D14D6912
:1031000023F4405343EA05138D6943EA05134360F2
:10311000C4614968C1630262F0BD00008FFFFEFF19
:10312000002C0140003401400040014000440140B7
:1031300000480140F0B5056A026A22F4805202623A
:103140004268C369194C1B4E23400C6823F440733A
:1031500043EA042425F400538D6843EA0533144DF3
:10316000A84201D0B04206D1CF6823F4004343EA1D
:10317000073323F48043A8420AD0B04208D00E4D52
:10318000A84205D00D4DA84202D00D4DA84207D14E
:103190004D6922F4404242EA85128D6942EA851265
:1031A0004260C461496801640362F0BDFF8FFFFEA5
:1031B000002C014000340140004001400044014027
:1031C0000048014030B5056A026A22F4803202628A
:1031D0004268036D114C23400C681C4325F40033F6
:1031E0000D8943EA05430E4DA8420BD00D4DA84270
:1031F00008D00D4DA84205D00C4DA84202D00C4D70
:10320000A84204D14D6922F4803242EA052242608C
:10321000046549688164036230BD00008FFFFEFFD2
:10322000002C0140003401400040014000440140B6
:103230000048014030B5046A026A22F4801202623A
:103240004268036D114D24F400142B400D6843EACD
:1032500005230D8944EA05540D4DA8420BD00D4DB0
:10326000A84208D00C4DA84205D00C4DA84202D06F
:103270000B4DA84204D14D6922F4802242EA8522F6
:10328000426003654968C164046230BDFF8FFFFE80
:10329000002C014000340140004001400044014046
:1032A0000048014010B5036A046A24F00104046276
:1032B000846924F0F00444EA021423F00A020A4369
:1032C0008461026210BD000070B5056A046A24F0D2
:1032D000010404628469124EB0420ED0B0F1804FF6
:1032E0000BD0104EB04208D00F4EB04205D00F4E5A
:1032F000B04202D00E4EB04203D124F00304144376
:1033000001E044F001041A0724F0F00444EA1262D8
:1033100025F00A0301F00A0119438261016270BDC0
:10332000002C01400004004000080040003401402F
:103330000040014010B5036A046A24F010040462DE
:10334000846923F0A00324F4704444EA023243EA7F
:1033500001118261016210BD30B5046A056A25F071
:1033600010050562856925F4407545EA022222F4BC
:1033700070454FF6FF7202EA033224F0A0032A439D
:10338000A02404EA011119438261016230BD0000EA
:1033900030B5416EB9B1026891689268C1F342617B
:1033A0000B4B520F9C5CE50003F10804A25CB5FBDB
:1033B000F2F2A0F86A205A5C615CD200B2FBF1F133
:1033C000A0F8681030BD0121A0F86A10F8E70000ED
:1033D0003A39000890F82810090706D501684A68AC
:1033E000836B22F400421A434A6090F82810C90700
:1033F00006D001684A68C36A22F400321A434A6060
:1034000090F82810890706D501684A68036B22F4F2
:1034100080321A434A6090F82810490706D501689F
:103420004A68436B22F480221A434A6090F82810BD
:10343000C90606D501688A68C36B22F480521A4314
:103440008A6090F82810890606D501688A68036C9E
:1034500022F400521A438A6090F82810490611D5C8
:1034600001684A68436C22F480121A434A60416C36
:10347000B1F5801F06D101684A68836C22F4C0024E
:103480001A434A6090F82810090606D501684A6870
:10349000C06C22F4002202434A6070472DE9F843D1
:1034A00000260446C0F89060FDF764FE8046206860
:1034B00000684FF0200500076FF07E4713D54346A4
:1034C000002229042046009700F0A2F958B1216893
:1034D00051E8000F20F0800041E80002002AF6D1F8
:1034E000C4F8885021E020680068400722D5434690
:1034F00000224FF480012046009700F089F9C8B1FE
:10350000216851E8000F20F4907041E80002002A81
:10351000F6D12068083050E8001F21F0010140E892
:103520000012002AF5D1C4F88C5084F8846003207E
:10353000BDE8F883C4F88850C4F88C5044F86C6F28
:10354000666026760020F3E710B5026852E8001F97
:1035500021F4907142E80013002BF6D10E4B026863
:10356000083252E8001F194042E80014002CF6D13E
:10357000C16E012908D1016851E8002F22F0100224
:1035800041E80023002BF6D12021C0F88C10002147
:10359000C166416710BD0000FEFFFFEF2DE9F0415D
:1035A0000446016880682269E36910436269002566
:1035B0001A431043DFF82CC20A688B4B1A400243AF
:1035C0000A6020684168E26821F44051114341607B
:1035D0002168A069614501D0226A10438A68834B43
:1035E0001A4002438A602068C16A626A21F00F01B2
:1035F0001143C1627E4923687E488B420DD1D0F8C9
:10360000880010F0030006D0012855D0022842D0CF
:1036100003283FD152E001203DE077498B420BD196
:10362000D0F8880010F00C0035D0042833D00828DA
:1036300040D00C282ED141E070498B420BD1D0F8FC
:10364000880010F0300026D0102835D0202831D046
:1036500030281FD132E06A498B420BD1D0F8880064
:1036600010F0C00017D0402826D0802822D0C028D3
:1036700010D123E063450DD1D0F8880010F44060EC
:1036800009D0B0F5806F17D0B0F5006F12D0B0F54B
:10369000406F13D010205B495B4F00264FF400426F
:1036A00063453BD160B1022813D004280BD0082811
:1036B00072D10DE00220EEE70420ECE70820EAE7F3
:1036C000FEF77AF801E0FEF79BF8010001D17CE0FB
:1036D0001146606A37F810206768B1FBF2F007EB1B
:1036E0004703834270D8B0EB073F6DD800230846EC
:1036F0001946FCF7E1FD090241EA1061020278086F
:10370000101871413A460023FCF7D6FD3F4AA0F558
:103710004071914258D82168C86056E0E3694FF67D
:10372000EF7893422CD109284ED2DFE800F005084B
:10373000114D0D4D4D4D1000FEF73EF801E0FEF726
:103740004DF8010004D140E0FEF75AF8F9E71146C0
:10375000606A37F81000B1FBF0F04100606801EBDF
:103760005001B1FBF0F0A0F1100141452CD84FF60B
:10377000F0710140C0F3420001432068C16024E0C1
:10378000092821D2DFE800F0050912200E202020B0
:103790001100FEF711F802E016E0FEF71FF8010035
:1037A00004D112E0FEF72CF8F9E71146606A37F809
:1037B0001000B1FBF0F1606801EB5001B1FBF0F0DB
:1037C000A0F1100141450AD901250120A4F86A00A1
:1037D00024F8680F2846E6602661BDE8F08180B2D3
:1037E00099E7000000800040F369FFCFFFF4FF116C
:1037F00000380140001002400044004000480040F2
:10380000004C00400024F40022390008FFFC0F00A7
:103810002DE9F047994617460D4604464FF000083B
:10382000089E33E0701C31D0FDF7A4FCA0EB09002A
:10383000B04218D8BEB120680168490726D5802D4E
:1038400024D0402D22D0C169C94309070DD40825D1
:1038500005622046FFF778FEC4F8905084F8848013
:103860000120BDE8F0870320FBE7C069C0430005E5
:103870000CD421684FF4006008622046FFF764FE14
:103880002020C4F8900084F88480ECE72068C069A8
:1038900035EA000004D00020B842C3D00020E0E7A1
:1038A0000120F9E7FEE70907090E002804DB00F113
:1038B000E02080F80014704700F00F0000F1E020D5
:1038C00080F8141D70470000FDF762FCFFF7A8FAAE
:1038D000FFF74EF8FFF736FAFEF7DCFFFFF722F8A6
:1038E000FFF7A4F8FFF7FAF8FFF760F9FFF7A8F978
:1038F000FFF7C4F8FFF7F0F9FFF758FA054D4FF45A
:10390000005421462846FDF727FC6420FDF7AEF958
:10391000F7E70000000800484FF04070E1EE100AA1
:103920007047010002000400060008000A000C00B5
:103930001000200040008000000101010103070188
:10394000000008040204080101010000000000005A
:10395000000001020304060708090000000001023C
:103960000304000084390008000000201400000057
:10397000140200089839000814000020EC0A000026
:1039800030020008000000001000000001000000EC
:08399000000000000024F40017
:04000005080001D915
:00000001FF
